:020000040000fa
:080000000001040000000000f3
:020000040000fa
:040008007803000079
:020000040000fa
:04000c007803000075
:020000040000fa
:040010007803000071
:020000040000fa
:04001400780300006d
:020000040000fa
:040018007803000069
:020000040000fa
:04001c007803000065
:020000040000fa
:040020007803000061
:020000040000fa
:04002400780300005d
:020000040000fa
:04002800c80100000b
:020000040000fa
:04002c007803000055
:020000040000fa
:040030007803000051
:020000040000fa
:04003400780300004d
:020000040000fa
:040038007803000049
:020000040000fa
:04003c007803000045
:020000040000fa
:040040007803000041
:020000040000fa
:04004400780300003d
:020000040000fa
:040048007803000039
:020000040000fa
:04004c007803000035
:020000040000fa
:040050007803000031
:020000040000fa
:04005400780300002d
:020000040000fa
:040058007803000029
:020000040000fa
:04005c007803000025
:020000040000fa
:040060007803000021
:020000040000fa
:04006400780300001d
:020000040000fa
:040068007803000019
:020000040000fa
:04006c007803000015
:020000040000fa
:040070007803000011
:020000040000fa
:04007400780300000d
:020000040000fa
:040078007803000009
:020000040000fa
:04007c007803000005
:020000040000fa
:040080007803000001
:020000040000fa
:0400840078030000fd
:020000040000fa
:0400880078030000f9
:020000040000fa
:04008c0078030000f5
:020000040000fa
:0400900078030000f1
:020000040000fa
:0400940078030000ed
:020000040000fa
:0400980078030000e9
:020000040000fa
:04009c0078030000e5
:020000040000fa
:0400a00078030000e1
:020000040000fa
:0400a40078030000dd
:020000040000fa
:0400a80078030000d9
:020000040000fa
:0400ac0078030000d5
:020000040000fa
:0400b00078030000d1
:020000040000fa
:0400b40078030000cd
:020000040000fa
:0400b80078030000c9
:020000040000fa
:0400bc0078030000c5
:020000040000fa
:0400c00078030000c1
:020000040000fa
:0400c400da0100005d
:020000040000fa
:0400c80078030000b9
:020000040000fa
:0400cc0078030000b5
:020000040000fa
:0400d00078030000b1
:020000040000fa
:0400d40078030000ad
:020000040000fa
:0400d80078030000a9
:020000040000fa
:040108007803000078
:020000040000fa
:04010c007803000074
:020000040000fa
:040110007803000070
:020000040000fa
:04011400780300006c
:020000040000fa
:040118007803000068
:020000040000fa
:04011c007803000064
:020000040000fa
:040120007803000060
:020000040000fa
:04012400780300005c
:020000040000fa
:04012800c80100000a
:020000040000fa
:04012c007803000054
:020000040000fa
:040130007803000050
:020000040000fa
:04013400780300004c
:020000040000fa
:040138007803000048
:020000040000fa
:04013c007803000044
:020000040000fa
:040140007803000040
:020000040000fa
:04014400780300003c
:020000040000fa
:040148007803000038
:020000040000fa
:04014c007803000034
:020000040000fa
:040150007803000030
:020000040000fa
:04015400780300002c
:020000040000fa
:040158007803000028
:020000040000fa
:04015c007803000024
:020000040000fa
:040160007803000020
:020000040000fa
:04016400780300001c
:020000040000fa
:040168007803000018
:020000040000fa
:04016c007803000014
:020000040000fa
:040170007803000010
:020000040000fa
:04017400780300000c
:020000040000fa
:040178007803000008
:020000040000fa
:04017c007803000004
:020000040000fa
:040180007803000000
:020000040000fa
:0401840078030000fc
:020000040000fa
:0401880078030000f8
:020000040000fa
:04018c0078030000f4
:020000040000fa
:0401900078030000f0
:020000040000fa
:0401940078030000ec
:020000040000fa
:0401980078030000e8
:020000040000fa
:04019c0078030000e4
:020000040000fa
:0401a00078030000e0
:020000040000fa
:0401a40078030000dc
:020000040000fa
:0401a80078030000d8
:020000040000fa
:0401ac0078030000d4
:020000040000fa
:0401b00078030000d0
:020000040000fa
:0401b40078030000cc
:020000040000fa
:0401b80078030000c8
:020000040000fa
:0401bc0078030000c4
:020000040000fa
:0401c00078030000c0
:020000040000fa
:0401c400da0100005c
:020000040000fa
:0401c80078030000b8
:020000040000fa
:0401cc0078030000b4
:020000040000fa
:0401d00078030000b0
:020000040000fa
:0401d40078030000ac
:020000040000fa
:0401d80078030000a8
:020000040000fa
:10020000ef9020000e9f20000e01880000000000eb
:10021000000020000000e000020032000001200089
:100220002002880014000700330107000000e000ee
:1002300003003a004047210001002000020037007f
:100240000000200001002000810f7000010032003a
:1002500014000700000020000000e000020032004f
:10026000000002000000000028140200000000004e
:100270000040da000000fe004440a9000000200019
:100280000000e0000300320000002000a001880010
:100290004440a800000006008a1f78008b1f7800e9
:1002a0000000060091018800800478000000eb0047
:1002b0001a003700e284440032a0b4009905ba0065
:1002c000e284440032a0b4009906ba00e2844400fb
:1002d00032a0b4000006eb00476fde00fd07b2005d
:1002e000636ce10003003a00ebff07000000eb0045
:1002f0000a003700606ce10004003a00005deb008a
:100300008b05e900fdff3e00040037006168e10055
:10031000010032000086eb000b00070019c7ba008d
:100320001905ba000e04e00003003a000a00e000dc
:10033000e0ff3a0000000600fe07b2009e018800c0
:100340008a047800f5ff3700395dba008b05e900b3
:100350000c003200295dba008b05e900080032006c
:100360000c00e00003003a00e284440032a0b40034
:10037000f5ff370019ddba008b05e900faff3a00f6
:100380008904e800e184440032a0b40000000600c3
:100390003400f800881f780008002000a8018800b9
:1003a0004f0478000000fa000080fa003400f900e1
:1003b000004006003600f800809fbe00829fbe000d
:1003c000849fbe00869fbe00889fbe008a9fbe009d
:1003d0008c9fbe003400f80000002000a0018800bf
:1003e0001e00fa0088e0a900014080004107980043
:1003f00001408000104080000080400000408800e4
:10040000014080004e009000808f500008003100b5
:10041000ca02a800200020005048880050488000f0
:100420000000e00002003a00100020005048880060
:10043000504880000000e000070032005048800073
:100440000000e90050488800504880000000e000ab
:1004500001003a00ca02a90041488000a0aa260073
:10046000808f500009003e0040488000630040003b
:10047000500798005e009000b1aa2600810f50003e
:1004800001003600b0aa26004048880001408000e4
:100490003048800000804000600798006e009000a7
:1004a0004900de00700798007e0090008000400048
:1004b000408020000080400010017800020f98006a
:1004c0000e0890006101b80000002c00f1ff2f0021
:1004d0000200400083804800100f9800210f980010
:1004e000404880008000eb001e0990000191b90097
:1004f00002017800ae099000009eb9008c017800de
:10050000030141009e0990000018b800010141005c
:10051000820078004109dd004f02de000402710014
:10052000cf8ade00340f9800450f980040488000c5
:100530006101b8001e089000ae0890006000100035
:10054000e0801800009ab90004027800028eb90019
:100550008c027800050242000010b800010242003f
:10056000840078004109dd004f05de000a057100b6
:10057000cf8dde005a0f98006b0f9800ce089000c8
:10058000502620000088b900000178003e08900045
:100590006000b9000000780000014100be08900032
:1005a000502620000008b8000101410082007800b8
:1005b00002002400930920000000410081804900ce
:1005c0004109dd004f04de0008047100cf8cde001d
:1005d000088fbe00ee089000502620000088b90069
:1005e000000178005e0890006000b900000078000b
:1005f00000014100de089000502620000008b800ed
:1006000001014100820078000200240093092000cb
:1006100000004100818049004109dd004f03de00f8
:1006200006037100cf8bde0026079800370798007d
:100630001e00be00e00f5000e08f580002003d0099
:100640006000b800008fbe0050262000010020008e
:100650001e01be00800f5100818f5900030034003d
:100660005026200001002000008fbe002e009000c8
:10067000be009000e00f5000e08f580003003d00e6
:100680006000b80020079800310798002e01900004
:10069000be0190005026200001002000800f510074
:1006a000818f5900040034005026200001002000f2
:1006b0002007980031079800ae0090001e007800d7
:1006c000e10707000080fa003400f9004f06be0081
:1006d0004f05be004f04be004f03be004f02be00d8
:1006e0004f01be004f00be003600f900004006007a
:1006f0000040da000000fe000000050014002000a9
:1007000089033700f4ff2f00870337000001be0084
:100710001b0007000470a70003f0a10003f8a3006a
:1007200013003a006509b1001000320009003500dd
:100730006928e100020035000100280000000500e2
:1007400000004000818048008502e900fcff3a007b
:1007500000000600f88f4200050035008100d1003e
:100760000080d3008502e800fcff3a00000006008c
:100770008000eb00000005006011b8008503370021
:10078000c70ade00f107b200f50fb2000800320020
:10079000e1cf4200020032000170a00024000500f9
:1007a000810f7000010032000408050044000500bc
:1007b000810f700002003a00140005008502e90074
:1007c0000000400081c04800fcff3b000170a00019
:1007d0002400050007f82700078361000638e100c0
:1007e00004003a00f7072000878361008703710047
:1007f00001003a0003f0a200889fbe008a9fbe005d
:100800008c9fbe00470ade000480a100c71ade00ec
:100810000580a1000700280007856000878561002a
:10082000f70f20000720e1009e0032000728e100ba
:100830009c003200010678000400e000b4003200a1
:10084000f7072000878060000170a0000500e0002d
:10085000c0003200f7072000878161000370a0000c
:10086000050652000f003a000b50e1000b00320069
:100870000308e10002003a000200e1007e003200bd
:100880000204500083845800040031000001fd0080
:100890008101fd008402fd008a05fd006044b8006e
:1008a000210037000520e10005003d000001fd00aa
:1008b0008101fd008402fd008a05fd00050652004d
:1008c0007a60e100050035000170a1004722dd00db
:1008d000848070008a807000630037006044b80034
:1008e000ef02660007ff2f00070666000500e00024
:1008f00006003400f08312008714dd000511de00cd
:10090000071bdd00060171008519de007060e10043
:10091000050035000904780082047800030178009e
:100920008001eb00700656000b50e10003003a0016
:100930000200400083804800040037006004140077
:10094000e0841c0002005800838058000188a30046
:10095000060032008100d1000080d3008984d300da
:100960000884d3000402e800270037000178a300c0
:1009700025003a000100e000030032008186cf002c
:10098000698656000a0037008c0020000000e00055
:1009900004003a0009007800880478000004eb00a5
:1009a000700252008086cf000d0646000c06e9005a
:1009b0007060e100060035008000780009007800d2
:1009c000880478000004eb007006560070025200a4
:1009d0000c00e0000c0034008c08dd00f003160071
:1009e0000703de00868070000c00dd00074bde0090
:1009f000060070008c4cdd000743de008684740026
:100a00000c44dd000c0252006120e10020003500a2
:100a1000610160000700280087816400f7ff27005c
:100a200087836400070374000300e00006003200bf
:100a300082037300040032000000e800e0804800f8
:100a40000188a3000e003a00f70f20000720e10004
:100a50004a003d000170a1004722dd0081007200c4
:100a60008a8070000000be004f06be004f05be0029
:100a70004f04be00000006006000b800faff370017
:100a80008100d1000080d3000402e800eeff3700af
:100a90000401780089017400a10107008a807000b8
:100aa000f1ff3700f7010700070278000001fd00a1
:100ab0008101fd00f30107008702780085037200c1
:100ac0000778a300040032000001fd008101fd0051
:100ad00006020700e4ff3700850362000768a300f1
:100ae000080032000b50e10003003200f0ff2f003d
:100af000f1ff2700dcff37000001fd008101fd0050
:100b0000d9ff37000468a300d7ff3200faff37008f
:100b1000f8ff2700888360000b003a000000e00027
:100b200009003a00830364008283730002003200ec
:100b30000200be00ccff37000b50e100ceff3a00b0
:100b40000200be00c8ff37001400200081006400ce
:100b50003eff3700f8ff27008883610004003a0059
:100b60000200e00002003a008c007800beff37006f
:100b7000150020008301640039ff370001f82700c9
:100b80000000200081007500b7ff3700889fbe007d
:100b90008a9fbe008c9fbe001b0020000202be0088
:100ba0000586680006002800060666004709de0084
:100bb000f20fb200820032000243e80080003200ef
:100bc000c729de00f30fb2007d0032000343e800c6
:100bd0007b003200f107b2000170a000f507b200ff
:100be0000570a000c708dd004903de0086807000a4
:100bf0004700dd00c72add004923de00868272003f
:100c00004722dd000305510004035000858358008e
:100c10000300310000004000818048000a05e9001f
:100c20008c1f78008a9fbe00040050008580580009
:100c30000402420085824a00000040008180480092
:100c40000005eb000004be006033b8000406be00df
:100c50000d48e10056003100110009004dccd800cc
:100c60000c01b8000d02b8008481410060824a0086
:100c70008283530003045c0084845c0060055d0093
:100c80000a00e00025003a00800578000d40e100f0
:100c90004900310088007800070078001100090041
:100ca0004d88d8000c01b8000d02b80084814100c5
:100cb00060824a006003110083835b0004045c00cf
:100cc000e0845c000900e00021003a004f01be0012
:100cd0000300e0002b003200e30160000706730010
:100ce0008c81710001003200640070004200de005f
:100cf0004e5edd000c007000c258de0001e0a00076
:100d000083010700cf017800818071004f06be008b
:100d10004f05be004f04be00000006008c83430058
:100d20000d044c00e0844c0060054d000000e9001b
:100d30000a00e000d4ff32008c8343000d044c0015
:100d4000e0844c0060054d000000e900ceff370054
:100d50000c0343008d834b0060044c00e0844c0086
:100d60000000e9000900e000d8ff32000c03430056
:100d70008d834b0060044c00e0844c000000e900cf
:100d8000d2ff37004200de004e5edd000c00700036
:100d9000c258de0001e0a000cf0178000300e000af
:100da000daff320060001000e0801800d7ff370043
:100db000f0ff2f00aaff3700f0ff2f00b9ff370028
:100dc0000404be002f010700870678000004fd0020
:100dd0008104fd002b010700078366000678a3004d
:100de000030032000960a7000800be002c00370095
:100df0000d78a300020032000800be002800370072
:100e00000778a30026003a0001f0a10009f0a10034
:100e10000668a30003003200f1ff2700f0ff2f0057
:100e2000baff37000d68a300030032000800be00bf
:100e30008c807000b5ff37000768a30007003a00f8
:100e40000648a30003003200f1ff2700f0ff2f0047
:100e5000aeff37000d48a300030032006000b80069
:100e60008c807000a9ff37000748a30004003200ff
:100e700001f82700000020008c807000a3ff3700dd
:100e8000760107000004fd008104fd0002057800e2
:100e9000720107000802be008a01780059ff37007e
:100ea0000160a000120220006248880097ff37000e
:100eb0000100e000120032000500e00010003200e6
:100ec000889fbe008a9fbe008c9fbe000006eb007c
:100ed00001f8a3000300320060001000e080180059
:100ee0000cf0a00005f8a30003003200600212001d
:100ef000e0821a000cf0a2008005eb0041ff3700f1
:100f00006000b800020005000383680007002800a5
:100f100007036300470ade000480a100c71ade0051
:100f20000580a100f70f20000720e10042003200f9
:100f30000728e10040003200889fbe008a9fbe0063
:100f40008c1f7800f107b200f307b2000400e00044
:100f5000640032000170a0000500e000680032006b
:100f60000370a00085054200eb07b1000204b80041
:100f70000302b8008484440060854a00020ab80075
:100f8000848444000a854a00030ab8000405450029
:100f9000040033000804d0008984d2000a85d200fe
:100fa0008b05e9006158e1003d003500021020008a
:100fb000090161000308200089816100f707200012
:100fc0008783640008867300c84cde00c853dd00c8
:100fd000878474004855de000300e00006003200fc
:100fe00082037600040032008904e80060054d00a9
:100ff0000a88a3000c003a00f70f20000758e10010
:1010000044003d000a70a100c75ddd000a8575003f
:101010008a007300090078004f0678004f05be0073
:101020004f04be00000006000a05d1008984d300e9
:101030008b05e800f0ff3700881f78000604780071
:1010400090000700070278000001fd008101fd000b
:101050008c00070087027800850372000778a300e0
:10106000050032000001fd008101fd009f00070026
:101070004f04780000000600850372000748a300b3
:1010800003003200f0ff2f00f1ff2700f8ff3700c8
:101090000000200001f8270088807000f4ff37006e
:1010a000880178004848dd00808171004848de00f2
:1010b000c850dd0001007000c850de000604780052
:1010c0000b0178001600070088807000d2ff3700ff
:1010d0000500e00005003200170020003a0007007c
:1010e0009dff370081037000f9ff3a008600780009
:1010f0004f0678004f05be004f04be0000000500fb
:1011000083037100f9ff3200270020002e00070042
:1011100094ff370001f8270086807000f4ff370045
:101120000100e00026003200610111007810e100aa
:1011300023003c006022b8007010e100040035007c
:1011400080027800010078008000eb0070015100ff
:101150000200e0000900340070031100062add00df
:10116000822ade008603dd00878272000200de0034
:10117000860bdd00070070008208de0084817100ac
:10118000f4ff2700048262008481710004002800bb
:10119000848262006102600005f0a6000000060083
:1011a00004827100070032000000e800e08048007f
:1011b000000006000002be006000b800efff37002c
:1011c0006000b80000000600889fbe000004eb002d
:1011d0006138e10016003a000100e00008003a0022
:1011e000c800de004800dd00880020000100e000ab
:1011f00003003a00c800de004800dd006804440037
:101200008184cf00e9845400060034008908dd00a1
:10121000f08314008703de00878070000900dd0082
:1012200009044400610214004f04be0000000600df
:101230000300e00008003a00c811de004811dd009c
:10124000880020000300e00003003a00c811de001f
:101250004811dd00680444008384cf00e984540011
:10126000060034008919dd00f08314008713de00c6
:10127000878171000911dd0009044400e1021400b6
:10128000e9ff37002700200001f0a7001700200029
:10129000470bde00f60fb200040032000643e80000
:1012a0000a0032004702b300000006000103780084
:1012b000f607b2000603700002003a000703b3000d
:1012c000000006008702b30000000600010378005a
:1012d000f607b20006037000020032000770a0009b
:1012e000000006000760a000000006000478a300cc
:1012f000040032000578a300030032000168a30057
:1013000001003a000200be000160a00000000600db
:1013100081017000270032008002eb0001f8a30079
:101320000300320060001000e0801800150020006b
:10133000f40720000202420020003400f7032000de
:1013400087036000060420000003630002082000f9
:10135000000161004700de00c909dd000080710066
:10136000c708de000600e0000800320087037100b5
:10137000060032001000b0000180b0000188a30018
:1013800002003200c108de000402e800f107b200ea
:10139000f30f20000320e10003003d004722dd00a1
:1013a000810072002900370001f827000000eb00df
:1013b000260037006000b800000006006802120036
:1013c0007f20e100020034006000b8001f003700f9
:1013d0006011b8007020e100040035008001780041
:1013e000010078008000eb00700252000400e00071
:1013f00009003400f00312000719dd008419de0033
:101400000703dd00868171000400de00070bdd00ac
:10141000060070008408de00f7ff27008383630066
:1014200087037100060028000303630007003200f1
:101430000700e00003003a006101600002817300d0
:10144000020032001000b0000180b0000500a600cc
:101450000000060001f0a000000006004f0ade00b8
:101460004709de00f107b200f20fb2000b003200b4
:10147000f207b1000170a000c708dd00c901de005d
:10148000838070004700dd000400a6000000060015
:1014900060001000e080180000000600810f70005e
:1014a00001003a00000006008182cf000500e00044
:1014b00010003e008082cf00ee8242007028e100e2
:1014c0000400390007003e00800078000000eb00b7
:1014d0000e003700708312008600de000500dd007c
:1014e0000a003700708352008600dd000000eb0028
:1014f00006003700e28252008508dd00708312008a
:101500000603de00868070000500dd007507b00070
:101510000501ea000400a6000000060060001000bb
:10152000e080180000000600889fbe008a9fbe0071
:10153000841f78006c0007004f0078001100330012
:10154000f0ff2f00838f6c0006003b000405650050
:101550000a00a7000800370009f0a60010002000cc
:1015600008003700820f5400838f5c0003003900ad
:101570001000200001003e000000200009f0a7003c
:101580000000ea004f05be004f04be000000e0006e
:1015900000000600889fbe008a9fbe000082700087
:1015a0000402710004827100260032000004be00b3
:1015b0000200be006011b8006b09200095022000f7
:1015c0000182cf000a0039000541b1000082cf003e
:1015d000070039000541b1000982cf00040039003d
:1015e0000541b1000882cf00010039000541b1007a
:1015f00005425200120032000a003b008281710055
:10160000610164008100d1000080d3008984d3008f
:101610000884d3008b05e8000442e800f7ff3a0095
:10162000070037000804440089844c00000048008b
:10163000818048008b05e9000442e900f9ff3a0087
:10164000030007004f05be004f04be000000060067
:1016500081002000618055000b003d000b00200040
:1016600061fe2f000100e1001d0034008281710045
:10167000610164008904d1000884d3000000e800ff
:10168000faff3a007100200061006400030070005e
:10169000020060000900320061044400e0844c0054
:1016a0000988a500050032008b05e8006808e10004
:1016b00002003a008904d1000884d300f20f200010
:1016c0000258e10005003d00c75ddd00f907b200ea
:1016d0008980750008007800000006000bf82700dc
:1016e0008b007800000005000004be0024fc070009
:1016f0000003be000405be000200be0020fc07007f
:10170000844f7500000006000c00fa00889fbe00a0
:101710000004be00fa0207008300780001f0a10077
:1017200002007800b21f220093fe2300820f5000b7
:10173000838f58001a003e00f2ff2f00f3e42300cd
:10174000820f5000838f580011003e00f2ff2f00df
:10175000f3002000820f5000838f580005003e00e8
:1017600002002000033820000800be00e6fd07004c
:10177000040037000200200003b827000800be0064
:101780001dfc070080bf9f0091bf9f003300370002
:101790000002eb006011b8000800be00190037001d
:1017a000f2ff2f00f3fe2700820f5000838f5800b6
:1017b000050036000801be000800be0005fc070059
:1017c0000004be00250037006c8157000800be00f1
:1017d0008f00070063006000e10f50000b00320033
:1017e00003003900e20f500015003a000d003700e9
:1017f000140020004fb99700dfb997002fb8970069
:10180000bfb8970042020700edff37004fb99700bd
:10181000dfb997002fb89700bfb8970013000700f3
:10182000e7ff3700140020004fb99700dfb9970099
:101830002fb89700bfb897003502070005003700a2
:101840004fb99700dfb997002fb89700bfb897003e
:10185000060007000004be0009f0a2000800be0058
:101860004f04be000080fa00000006001400fa00d9
:10187000889fbe008a9fbe008c9fbe000005be00f0
:10188000a2b79f00b3b79f000a01be000a00be00c6
:101890009dfd07000004be000001be009afd070088
:1018a00080b79f0091b79f000200200003f0230043
:1018b0000800be0094fd07000006be000001be0047
:1018c0000000200001f82300c2fb07000001be0059
:1018d000c0b79f00d1b79f000000200001f823008f
:1018e000bcfb07000c01be00bafb07000003be00f2
:1018f00012d02000037d23000800be0086bf9f0099
:1019000097bf9f0080fd070012b6200063ab230045
:10191000b0fb07000001be000800be007afd070012
:10192000b2aa2a00a3d22300b3fb07000001be0025
:101930000800be0074fd07000002be000fb1970052
:101940009fb197000200be00e4b79f00f5b79f006b
:101950006dfd07000006be00e2742d0073d42a005e
:101960000800be0068fd0700624f2700f310230047
:10197000a1fb07000001be000800be0062fd0700d9
:10198000c2272f003349230092fb07000001be004d
:101990000c00be005cfd07000001be006fb29700a6
:1019a000ffb297000400be0093fb07000001be00d9
:1019b0000800be0054fd07000004be002fb19700d0
:1019c000bfb197000a00be004ffd07000001be0036
:1019d0000800be007ffb07000001be000fbb9700a0
:1019e0009fbb97000600be0083fb07000001be00fe
:1019f0004fb09700dfb097007ffb07004f06be0097
:101a00004f05be004f04be000080fa000000060033
:101a1000f8874700889fbe008a9fbe008c9fbe004b
:101a20008e1f78000004be00020778006000b80036
:101a30006011b800f0af9f0081b79f0092b79f0080
:101a4000a3b79f00f8af9f0089b79f007faa9700b8
:101a50008fb297001fb39700afb397004f3ade00e5
:101a60001fb19700afb197008303780007f0a10082
:101a7000c7b79f00b2b79f00a0a72600f1002400bf
:101a80003fb39700cfb39700800f5300818f5b0067
:101a90005c003e00ef80630002007800b21f22006d
:101aa00093002000820f5000838f5800d600320030
:101ab000c0972d0021002400800f5300818f5b0010
:101ac00028003e000400e00013003a00b2fd2000b0
:101ad00093fc23000800be003efb07000004be008c
:101ae00092302a0053e822003afb07000001be00b2
:101af000008fbe000800be0036fb070092302a00af
:101b000053e8220033fb07002007980031079800b4
:101b10001600200077013700b2fd200093fc23005f
:101b20000800be0034fb07000004be0092302a000b
:101b300053e8220030fb07000001be00008fbe000a
:101b40000800be0023fb070092302a0053e8220061
:101b500029fb070020079800310798000083eb005d
:101b6000640137000400e00013003a00b2fd2000d9
:101b7000930424000800be0016fb07000004be000a
:101b800092302a0053f0220012fb07000001be0031
:101b9000008fbe000800be000efb070092302a0036
:101ba00053f022000bfb0700200798003107980034
:101bb000260020004f013700b2fd200093042400ce
:101bc0000800be000cfb07000004be0092302a0093
:101bd00053f0220008fb07000001be00008fbe008a
:101be0000800be00fbfa070092302a0053f02200e2
:101bf00001fb07002007980031079800e6ff2f003f
:101c00003c013700b0632400c10124003fb39700ba
:101c1000cfb39700800f5300818f5b0073003e00ad
:101c2000c0db2f0051012400800f5300818f5b0027
:101c30003f003e00c0972d0021012400800f53007b
:101c4000818f5b00700032000400e0001c003a004d
:101c50000200200003042400b0fd200091fc2300ba
:101c6000a9fc07000001be000800be00d9fa070069
:101c70000005be00020020000304240090302a006a
:101c800051e82200a0fc07000004be000001be00d5
:101c90000a00be00cffa07000001be00008fbe00a0
:101ca0000a00be00cbfa07000801be00c9fa07000f
:101cb0002007980031079800360020000d013700fa
:101cc0000200200003042400b0fd200091fc23004a
:101cd0008dfc07000001be000800be00c6fa070028
:101ce0000005be00020020000304240090302a00fa
:101cf00051e8220084fc07000004be000001be0081
:101d00000a00be00bcfa07000001be00008fbe0042
:101d10000a00be00affa07000801be00b6fa0700cd
:101d20002007980031079800d6ff2f00f1003700f8
:101d3000b01f2200910124003fb19700cfb197005e
:101d4000800f5100818f59002f0032000400e00005
:101d500013003a00b2fd2000930c24000800be00de
:101d60009cfa07000004be0092302a0053f82200bb
:101d700098fa07000001be00008fbe000800be00f8
:101d800094fa070092302a0053f8220091fa0700d3
:101d9000200798003107980046002000d500370042
:101da000b2fd2000930c24000800be0092fa070048
:101db0000004be0092302a0053f822008efa070079
:101dc0000001be00008fbe000800be0081fa0700bf
:101dd00092302a0053f8220087fa07002007980063
:101de00031079800c6ff2f00c2003700a01f220055
:101df000911324003fb39700cfb39700800f530097
:101e0000818f5b0087003e0032982f0023f2230071
:101e10000800be003cfc07000200200003b42400c0
:101e200075fa07000200200003b4240069fa0700d5
:101e30000006be007a01070000037800b2fd200012
:101e400093fc23000c00be0086bf9f002efc070001
:101e50000001be000800be005efa07000005be00db
:101e600092302a0053e822000c00be0026fc070036
:101e70000004be000001be000a00be0055fa0700c3
:101e80000002be00008fbe00f0af9f0081b79f0030
:101e90003fb19700cfb197004418de000100200049
:101ea00080017800e3af9f007fa897008fb0970074
:101eb0001fb19700afb197004418de00f77f2000f4
:101ec00007006000efa89700008050000fbb97004c
:101ed000f00f50004900340012c52c0083d12100be
:101ee0000c00be00f4b79f00e5b79f00d7b79f0076
:101ef00005fc0700b0b79f00c1b79f007fb29700f5
:101f0000efb297000401be000a00be0031fa0700dc
:101f10000801be002ffa07000001be003fb0970085
:101f2000cfb097002bfa07000004be000001be00ee
:101f30007fb29700efb297000400be0025fa0700b9
:101f4000008fbe00f0af9f0081b79f007fa8970071
:101f50008fb097001fb19700afb197004418de0013
:101f6000dfb3970007006000efa8970000805000e3
:101f7000110320007fb29700efb297000fbb9700cc
:101f8000810f50001c0034003fb19700cfb1970083
:101f90000400be000ffa07000005be0012cd2100ac
:101fa000c3bd20000c00be00d7fb07000004be002c
:101fb0000a01be007fb29700efb297000400be0096
:101fc00004fa07003fb19700cfb1970001fa07006c
:101fd0000001be000800be00fef907000004be00bc
:101fe0000001be000a00be00faf90700008fbe0023
:101ff0000fbb9700010037000405be001e01be00a4
:102000000a00be0086bf9f00f2f907000801be006b
:10201000f0f9070020079800310798000fbb9700e0
:1020200034003700f0ff2f00f1fe27003fb197008a
:10203000cfb19700800f5100818f59000800360002
:102040000801be000800be00e2f907002007980062
:1020500031079800008fbe000003eb002500370019
:102060000800be00f4b79f00990007000006be00fc
:1020700032982f0023f22300a3fb07000200200068
:1020800003f02300dcf90700bc0007000205be00d6
:102090000004be000301070032982f0023f2230042
:1020a000bafa07000001be000c00be00c9f9070023
:1020b000008fbe000e0078006011b80002a8be00bc
:1020c000080378007fb297000400e00006003200a9
:1020d0000200200003002800028fbe000288be001c
:1020e0000603ea00030037006011b800028fbe004b
:1020f0000288be00060078004f0778004f06be0039
:102100004f05be004f04be008f01b1000000060065
:10211000ee874700889fbe008a9fbe008c9fbe004e
:102120008e1f78000004be00d2b79f00e3b79f0067
:10213000040778000801be000800be0072fb07001b
:102140000005be00b2f12e00836323006efb070082
:1021500012d02000039523009ef907000001be0065
:102160000a00be0068fb07009288280083c0230095
:10217000a1f907000002be000a01be000a00be006d
:10218000f4b79f0085bf9f005ffb07000001be0002
:102190000a00be005cfb07000006be00329d2c005a
:1021a000e3f222000a00be0057fb070042f32200c0
:1021b000732d230087f907000001be000c00be004c
:1021c00051fb07000001be007fb297008fba970055
:1021d0000400be0088f90700b0b79f00c1b79f0098
:1021e0000801be000a00be0047fb07000006be0053
:1021f0000e00e0000e003a003fb19700cfb197000b
:102200000a00be0040fb0700b2aa2a00a3e2230096
:1022100070f907000001be000c00be003afb070089
:102220000001be000800be0073f90700220037005d
:102230000200200003f023005fb09700efb097008a
:1022400031fb07000002be003fb19700cfb19700fd
:102250000c00be00f4b79f0085bf9f002afb07005b
:102260000001be007fb297008fba97000400be0045
:1022700058f907000001be000a00be0022fb07005b
:102280005fb19700efb1970052f907000005be005b
:10229000b2aa2a00a3e22b000c00be001afb070022
:1022a0000001be000a00be004af907000001be009e
:1022b0000800be0047f907004f0778004f06be0030
:1022c0004f05be004f04be00ef00b1000000060045
:1022d0006022b8006033b8000002be00f0ff2f009b
:1022e000f1ff2f00f2ff2f00f3ff27000000620034
:1022f00081806200020163008381630000000600a8
:10230000810378001ef907000001be006000b800dc
:102310000478a30013003a006220e10015003e009b
:102320000d0039008301d1000281d3008180d300e8
:102330008301d1000281d3008180d3008301d100c9
:102340000281d3008180d3000538b000c42add00ab
:10235000f300b2008381720007f0a70003f0a00031
:102360000000060083ff2700020020006110b90072
:10237000f9ff370003ff2700f7ff37000003be0017
:10238000fff807006011b8000470a70007f0a10073
:102390006509b1001b0032001200350086022000e2
:1023a0000628e10008003500f3ff2700f2ff2f00a8
:1023b0006110b9000700e00018003b00030028008e
:1023c0006000b80002000500000040008180480065
:1023d00002014900838149008502e900faff3a00c1
:1023e00008003700f88f420002003c008000eb003c
:1023f000000005008100d1000080d3008502e800c4
:10240000fcff3a000700e00004003b006000100001
:10241000e080180060011900e0811900000006004a
:102420000001be00d6f807000470a70003f0a10069
:102430006509b100160032000d0035006828e10082
:1024400006003500f0ff2f00f1ff27000300e00039
:1024500013003b00010028000000050000004000c0
:10246000818048008502e900fcff3a00080037003f
:10247000f88f420002003c008000eb0000000500e5
:102480008100d1000080d3008502e800fcff3a0003
:102490000300e00002003b0060001000e080180034
:1024a00000000600881f7800030478000300e000a5
:1024b00007003d0060001000e08018006001190076
:1024c000e081190002003b0001f02d0003003700fd
:1024d00030fc070008f0a70001f0a0004f047800ce
:0424e00000000600f2
:020000040000fa
:1024e4000400fa00881f7800008fbe0018c0b300f3
:1024f4006011b8001e00be007ff807000000e00075
:10250400010034000044eb000804e0000200320043
:102514000000eb001500370018c0b30082df2f0065
:10252400f3f723001e00be0075f807000000e0006a
:1025340001003d000044eb000804e000020032000a
:10254400f0ff27000900370002e02f00f36f24009a
:102554001e00be006bfa07000200200003f02300f7
:10256400a4f8070068f80700000078004f0478001a
:102574000080fa00000006000000fa000080eb0072
:1025840040158800a8a2a900c6a2a800a1a2a9007b
:1025940001158000f0cf2f00008060000015880036
:1025a40001158000000e2000010070000015880055
:1025b400a062a900a042a900a222ef002115800078
:1025c400f00f2e000080600000c0a00020158800dd
:1025d4002115800000fc2f0000806000a000b300e3
:1025e40020158800a622ef00a1e2a8000080fa00ce
:1025f400000006000000fa003115800000ff2f00e3
:10260400008060005000b30030158800a022a800ac
:102614008007200001002000a4000700a022a900d8
:102624000000000000158000610060000000e00070
:10263400fcff3200a002a900001480000080fa0010
:10264400000006000400fa00000f7800110798004b
:102654001e0078000000e00002003a001000200094
:10266400000f7800402620009e007800808f5000e4
:102674000200360040262000000f78001e00900063
:102684000000e00002003a0010002000100798004b
:102694009e00900040262000808f500002003600eb
:1026a40040262000100798001e007800000040001b
:1026b400b00e88001e00900000004000c00e88008c
:1026c4000080fa00000006000000fa00c1e1a90041
:1026d400010e800030ff2f0000806000000e880093
:1026e400010e8000f0f02f0000806000000e8800d2
:1026f40050262000200e8800c901a900c921a90084
:10270400c941a900c881a800c801a800c8a1a8009f
:10271400c821a800c8c1a900c841a900610e800051
:10272400f0f32f0000806000600e8800610e8000ce
:1027340000fc2f0000806000600e8800010e800005
:10274400c0ff2f00008060000010a000000e880071
:10275400200e8000300e8800d621ef00d821ef0033
:10276400c1e1a8000080fa00000006000a00fa0097
:102774000000eb00000f7800200037001e007800f6
:102784008000eb00fbf70700b2fd2000930c24004f
:10279400dcf907000200200003302400faf80700e7
:1027a40010079800210798001e009000ae009000ca
:1027b400d4fb07000200200003f02300d1f9070036
:1027c4000200200003f023000af8070030079800f5
:1027d400410798003e009000ce00900040ff0700a3
:1027e400800078001e007800000140004080200036
:1027f40000004100010878001e0fe800f0072000e7
:102804009e007800808f5000dcff36000080fa00c4
:10281400000006000400fa00300a20000100200035
:10282400008fbe001e007800104088000028ef00d2
:102834000080fa00000006000000fa00c602a900a9
:10284400ca02a9000080fa00000006000200fa0093
:10285400c6ff0700efff070047ff0700f6ff07006a
:1028640099ff070088e0a90090e0a8000629ef007e
:10287400ca02a9005fff07002048880022488000a0
:1028840010c0b300b12c2000810f510001003e00a4
:102894000040eb00004f78000629ef0000002e00f6
:0c28a4001100200001000700f2ff3700c7
:020000040000fa
:1028b000f03fb1000180b10006003500ee030900d1
:1028c00000000000403fb1000180b100fbff3d006f
:1028d0001000b000203fb000020035000080090069
:0828e0000000000000000600ea
:020000040000fa
:1028e800000800000c010000000000000c090000b6
:0c28f800020000000000000000000000d2
:020000040000fa
:0200000401f009
:04000000f7bf000046
:020000040000fa
:0200000401f009
:04000400ff7f00007a
:020000040000fa
:0200000401f009
:04000800efff000006
:020000040000fa
:0200000401f009
:04001400ffffff00eb
:020000040000fa
:0200000401f009
:04001800ffff0000e6
:00000001FF
